{
  "_format": "hh-sol-artifact-1",
  "contractName": "CertificateRegistry",
  "sourceName": "contracts/CertificateRegistry.sol",
  "abi": [
    {
      "inputs": [
        {
          "internalType": "string",
          "name": "",
          "type": "string"
        }
      ],
      "name": "certificates",
      "outputs": [
        {
          "internalType": "string",
          "name": "studentName",
          "type": "string"
        },
        {
          "internalType": "string",
          "name": "course",
          "type": "string"
        },
        {
          "internalType": "string",
          "name": "ipfsHash",
          "type": "string"
        },
        {
          "internalType": "uint256",
          "name": "issueDate",
          "type": "uint256"
        }
      ],
      "stateMutability": "view",
      "type": "function"
    },
    {
      "inputs": [
        {
          "internalType": "string",
          "name": "certId",
          "type": "string"
        },
        {
          "internalType": "string",
          "name": "name",
          "type": "string"
        },
        {
          "internalType": "string",
          "name": "course",
          "type": "string"
        },
        {
          "internalType": "string",
          "name": "ipfsHash",
          "type": "string"
        }
      ],
      "name": "issueCertificate",
      "outputs": [],
      "stateMutability": "nonpayable",
      "type": "function"
    },
    {
      "inputs": [
        {
          "internalType": "string",
          "name": "certId",
          "type": "string"
        }
      ],
      "name": "verifyCertificate",
      "outputs": [
        {
          "components": [
            {
              "internalType": "string",
              "name": "studentName",
              "type": "string"
            },
            {
              "internalType": "string",
              "name": "course",
              "type": "string"
            },
            {
              "internalType": "string",
              "name": "ipfsHash",
              "type": "string"
            },
            {
              "internalType": "uint256",
              "name": "issueDate",
              "type": "uint256"
            }
          ],
          "internalType": "struct CertificateRegistry.Certificate",
          "name": "",
          "type": "tuple"
        }
      ],
      "stateMutability": "view",
      "type": "function"
    }
  ],
  "bytecode": "0x608060405234801561001057600080fd5b50610d16806100206000396000f3fe608060405234801561001057600080fd5b50600436106100415760003560e01c8063818a2994146100465780638b23d875146100625780638f2b91ea14610092575b600080fd5b610060600480360381019061005b91906106b1565b6100c5565b005b61007c60048036038101906100779190610788565b610159565b60405161008991906108da565b60405180910390f35b6100ac60048036038101906100a79190610788565b610351565b6040516100bc9493929190610955565b60405180910390f35b6040518060800160405280848152602001838152602001828152602001428152506000856040516100f691906109eb565b908152602001604051809103902060008201518160000190816101199190610c0e565b50602082015181600101908161012f9190610c0e565b5060408201518160020190816101459190610c0e565b506060820151816003015590505050505050565b61016161052f565b60008260405161017191906109eb565b908152602001604051809103902060405180608001604052908160008201805461019a90610a31565b80601f01602080910402602001604051908101604052809291908181526020018280546101c690610a31565b80156102135780601f106101e857610100808354040283529160200191610213565b820191906000526020600020905b8154815290600101906020018083116101f657829003601f168201915b5050505050815260200160018201805461022c90610a31565b80601f016020809104026020016040519081016040528092919081815260200182805461025890610a31565b80156102a55780601f1061027a576101008083540402835291602001916102a5565b820191906000526020600020905b81548152906001019060200180831161028857829003601f168201915b505050505081526020016002820180546102be90610a31565b80601f01602080910402602001604051908101604052809291908181526020018280546102ea90610a31565b80156103375780601f1061030c57610100808354040283529160200191610337565b820191906000526020600020905b81548152906001019060200180831161031a57829003601f168201915b505050505081526020016003820154815250509050919050565b60008180516020810182018051848252602083016020850120818352809550505050505060009150905080600001805461038a90610a31565b80601f01602080910402602001604051908101604052809291908181526020018280546103b690610a31565b80156104035780601f106103d857610100808354040283529160200191610403565b820191906000526020600020905b8154815290600101906020018083116103e657829003601f168201915b50505050509080600101805461041890610a31565b80601f016020809104026020016040519081016040528092919081815260200182805461044490610a31565b80156104915780601f1061046657610100808354040283529160200191610491565b820191906000526020600020905b81548152906001019060200180831161047457829003601f168201915b5050505050908060020180546104a690610a31565b80601f01602080910402602001604051908101604052809291908181526020018280546104d290610a31565b801561051f5780601f106104f45761010080835404028352916020019161051f565b820191906000526020600020905b81548152906001019060200180831161050257829003601f168201915b5050505050908060030154905084565b6040518060800160405280606081526020016060815260200160608152602001600081525090565b6000604051905090565b600080fd5b600080fd5b600080fd5b600080fd5b6000601f19601f8301169050919050565b7f4e487b7100000000000000000000000000000000000000000000000000000000600052604160045260246000fd5b6105be82610575565b810181811067ffffffffffffffff821117156105dd576105dc610586565b5b80604052505050565b60006105f0610557565b90506105fc82826105b5565b919050565b600067ffffffffffffffff82111561061c5761061b610586565b5b61062582610575565b9050602081019050919050565b82818337600083830152505050565b600061065461064f84610601565b6105e6565b9050828152602081018484840111156106705761066f610570565b5b61067b848285610632565b509392505050565b600082601f8301126106985761069761056b565b5b81356106a8848260208601610641565b91505092915050565b600080600080608085870312156106cb576106ca610561565b5b600085013567ffffffffffffffff8111156106e9576106e8610566565b5b6106f587828801610683565b945050602085013567ffffffffffffffff81111561071657610715610566565b5b61072287828801610683565b935050604085013567ffffffffffffffff81111561074357610742610566565b5b61074f87828801610683565b925050606085013567ffffffffffffffff8111156107705761076f610566565b5b61077c87828801610683565b91505092959194509250565b60006020828403121561079e5761079d610561565b5b600082013567ffffffffffffffff8111156107bc576107bb610566565b5b6107c884828501610683565b91505092915050565b600081519050919050565b600082825260208201905092915050565b60005b8381101561080b5780820151818401526020810190506107f0565b60008484015250505050565b6000610822826107d1565b61082c81856107dc565b935061083c8185602086016107ed565b61084581610575565b840191505092915050565b6000819050919050565b61086381610850565b82525050565b600060808301600083015184820360008601526108868282610817565b915050602083015184820360208601526108a08282610817565b915050604083015184820360408601526108ba8282610817565b91505060608301516108cf606086018261085a565b508091505092915050565b600060208201905081810360008301526108f48184610869565b905092915050565b600082825260208201905092915050565b6000610918826107d1565b61092281856108fc565b93506109328185602086016107ed565b61093b81610575565b840191505092915050565b61094f81610850565b82525050565b6000608082019050818103600083015261096f818761090d565b90508181036020830152610983818661090d565b90508181036040830152610997818561090d565b90506109a66060830184610946565b95945050505050565b600081905092915050565b60006109c5826107d1565b6109cf81856109af565b93506109df8185602086016107ed565b80840191505092915050565b60006109f782846109ba565b915081905092915050565b7f4e487b7100000000000000000000000000000000000000000000000000000000600052602260045260246000fd5b60006002820490506001821680610a4957607f821691505b602082108103610a5c57610a5b610a02565b5b50919050565b60008190508160005260206000209050919050565b60006020601f8301049050919050565b600082821b905092915050565b600060088302610ac47fffffffffffffffffffffffffffffffffffffffffffffffffffffffffffffffff82610a87565b610ace8683610a87565b95508019841693508086168417925050509392505050565b6000819050919050565b6000610b0b610b06610b0184610850565b610ae6565b610850565b9050919050565b6000819050919050565b610b2583610af0565b610b39610b3182610b12565b848454610a94565b825550505050565b600090565b610b4e610b41565b610b59818484610b1c565b505050565b5b81811015610b7d57610b72600082610b46565b600181019050610b5f565b5050565b601f821115610bc257610b9381610a62565b610b9c84610a77565b81016020851015610bab578190505b610bbf610bb785610a77565b830182610b5e565b50505b505050565b600082821c905092915050565b6000610be560001984600802610bc7565b1980831691505092915050565b6000610bfe8383610bd4565b9150826002028217905092915050565b610c17826107d1565b67ffffffffffffffff811115610c3057610c2f610586565b5b610c3a8254610a31565b610c45828285610b81565b600060209050601f831160018114610c785760008415610c66578287015190505b610c708582610bf2565b865550610cd8565b601f198416610c8686610a62565b60005b82811015610cae57848901518255600182019150602085019450602081019050610c89565b86831015610ccb5784890151610cc7601f891682610bd4565b8355505b6001600288020188555050505b50505050505056fea2646970667358221220262e2b1f81b0ffa8708666ccce79fcb00477e4b48ba881f1cb3583cf6a4b0d8c64736f6c63430008140033",
  "linkReferences": {},
  "deployedLinkReferences": {}
}